:100000000EC11DC11CC1ECC11AC119C118C117C153
:1000100016C115C114C113C112C111C110C1000014
:1000200000000000000000000000000000000000D0
:100030000000000000000000001818181818181818
:10004000181A1C1E202325272A2C2F3235383B3E18
:100050004144484B4F52565A5E62676B6F74797DCC
:1000600082878D92979DA2A8AEB4BAC0C6CDD3DACE
:10007000E1E8E800000000181C242C343C454D56F3
:100080005F68717B848E97A1ABB5C0CAD5E0E800EC
:10009000000018232F3B47535F6C798693A0ADBABD
:1000A000C8D6E4E800181D2C3B4A5969788898A8FE
:1000B000B8C8D9E800001D2E40526476889AADC0B9
:1000C000D3E600182034485D71869AAFC4DAE800A0
:1000D0001B31475D748BA2B9D0E8001830486179B4
:1000E00092ABC4DE00182B46607B96B1CCE7001FB4
:1000F0003B577490ADCAE70022405E7D9BBAD900A1
:100100001837567696B7D700193A5C7D9FC1E30041
:10011000294C6F92B6D90022466B90B5DA000000E8
:1001200000000000000000000000000000000000CF
:1001300000000000000000000000000000000000BF
:1001400000000000000000000000000000000000AF
:10015000000000000000000000000000000000009F
:10016000000000000000000000000000000000008F
:100170000000000101010101010101010101010172
:10018000010101010101010101010101010101025E
:10019000020202020202020202020202020202023F
:1001A0000202020203030303030303030303030323
:1001B0000303030304040404040404040404040403
:1001C00004040505050505050505050505050506E0
:1001D00006060606060606060606070707070707B9
:1001E0000707070708080808080808080808090991
:1001F000090909090909090A0A0A0A0A0A0A0A0B65
:100200000B0B0B0B0B0B0B0C0C0C0C0C0C0C0C0D34
:100210000D0D0D0D0D0D0E0E0E0E0E0E0E0F1124EA
:100220001FBECFE5D2E0DEBFCDBF21E0A0E6B0E04B
:1002300001C01D92AC37B207E1F766D082C1E0CEB3
:10024000CF9320E030E080E090E0A1E0B0E0CFEF9D
:100250004091620050916300BD01082E02C0660FFC
:10026000771F0A94E2F746235723452B41F0E0918C
:100270001F01F0912001E20FF31FC08307C0E0913E
:100280001F01F0912001E20FF31F1082E0911F0186
:10029000F0912001E20FF31F1282118201962D5F6F
:1002A0003F4F80319105A1F680E390E020E4E0919A
:1002B0001F01F0912001E80FF91F208301968A3574
:1002C0009105A9F78091610091E0980F90936100EA
:1002D000877031F4809160008F5F8F708093600031
:1002E00080916000082E000C990BFC01EE0FFF1F9F
:1002F0008E0F9F1FE0911F01F0912001E80FF91F61
:100300008FEF8183CF910895109260001092610069
:10031000C398BB9A80ED97E00197F1F7C5D0FBD069
:100320000895369A3699FECF84B195B10895CF934A
:10033000DF9328B338B320613F7EEEE1F0E0A4E61E
:10034000B0E040E050E070E0EC015991E50FF11DA4
:100350005491F3954C91450F74914D93711D28BBA9
:10036000EEE177FF38BBF0E000C038BB00C028BB2F
:10037000000076FF38BB5991E50F38BB4C9128BB84
:10038000F11D75FF38BB549138BB00C028BB00007D
:1003900074FF38BB00C0000038BB00C028BBF39519
:1003A00073FF38BB450F00C038BB00C028BB00003E
:1003B00072FF38BB549138BB00C028BB000071FFEE
:1003C00038BB4D93511D38BB00C028BB6A9570FFE8
:1003D00038BB752F00C038BB11F6DF91CF9108955F
:1003E0001F920F920FB60F9211242F933F934F93AA
:1003F0005F936F937F938F939F93AF93BF93EF938D
:10040000FF936AE580911C0190911D0190DF80911E
:100410001E018F5F80931E018091BF00811108C073
:1004200080911E018F3021F48CE087B986E886B96F
:100430008091C000882339F180911E01803118F12C
:1004400080911C0190911D0120911F01309120018C
:1004500030931D0120931C019093200180931F0174
:100460001092C00010921E018091BF00811106C041
:1004700058DF909363008093620016B88091BF00AC
:100480008F5F8093BF00FF91EF91BF91AF919F91DC
:100490008F917F916F915F914F913F912F910F902D
:1004A0000FBE0F901F901895CF93DF93E4E6F0E016
:1004B00089E9819387568336E1F781E291E0909351
:1004C0001D0180931C0181EC90E0909320018093AA
:1004D0001F01C49880E187BB81E08093BF008CE05E
:1004E00087B986E886B9C0EDD7E0CE010197F1F76C
:1004F00018DF909363008093620016B8F89410BEE2
:1005000083E18DBD80E488BF89BF78942197F1F79E
:10051000DF91CF9108958BE880BFC1E091DEC09359
:10052000C0008091C0008823C9F385B7806285BF71
:10053000889585B78F7D85BF8091C0008111F5CFEB
:06054000EDCFF894FFCF9F
:00000001FF
