:10000000DDC1ECC1EBC179C4E9C1E8C1E7C1E6C11A
:10001000E5C1E4C1E3C1E2C1E1C1E0C1DFC100006B
:10002000000102030507090C0F1215191C212529CF
:100030002E33383D43484E545A60666C73797F8541
:100040008B92989EA4AAB0B6BBC1C6CBD0D5D9DD41
:10005000E2E5E9ECEFF2F5F7F9FBFCFDFEFEFFFE51
:10006000FEFDFCFBF9F7F5F2EFECE9E5E2DDD9D5B1
:10007000D0CBC6C1BBB6B0AAA49E98928B857F791F
:10008000736C66605A544E48433D38332E292521FF
:100090001C1915120F0C09070503020100000000CE
:1000A0000000000000000000000000000000000050
:1000B0000000000000000000000000000000000040
:1000C0000000000000000000000000000000000030
:1000D0000000000000000000000000000000000020
:1000E0000000000000000000000000000000000010
:1000F0000000000000000000000000000000000000
:1001000000000000000000000000000000000000EF
:100110000000000000000000000000000000010DD1
:10012000131F253137434955010D131F253137431F
:100130004955C7BAA9ABC0D5C0A1815BE5EE0D3268
:1001400032200EF906171601F9EBE7EBD2C7D5D925
:100150005AE4BE9E806A8094968578666A786D546B
:100160005854463E29283946311F0D0D32518578A5
:10017000819596A0A9AABEC7BAB2C7D4E7EBD3B3FC
:10018000E002203D608C6C54586B788DA09C989454
:10019000908C8885817D7A76726F6B6864615D5A18
:1001A0005653504C4946423F3C3936322F2C292673
:1001B00023201D1A1714110E0B0805020000000061
:1001C000000000000000000000000000000000002F
:1001D0000000000000000018181818181818181A45
:1001E0001C1E202325272A2C2F3235383B3E414424
:1001F000484B4F52565A5E62676B6F74797D8287A7
:100200008D92979DA2A8AEB4BAC0C6CDD3DAE1E86C
:10021000E800000000181C242C343C454D565F6853
:10022000717B848E97A1ABB5C0CAD5E0E800000011
:1002300018232F3B47535F6C798693A0ADBAC8D67D
:10024000E4E800181D2C3B4A5969788898A8B8C87A
:10025000D9E800001D2E40526476889AADC0D3E6DE
:1002600000182034485D71869AAFC4DAE8001B316B
:10027000475D748BA2B9D0E800183048617992AB21
:10028000C4DE00182B46607B96B1CCE7001F3B57BD
:100290007490ADCAE70022405E7D9BBAD900183742
:1002A000567696B7D700193A5C7D9FC1E300294C7A
:1002B0006F92B6D90022466B90B5DA0000000000BC
:1002C000000000000000000000000000000000002E
:1002D000000000000000000000000000000000001E
:1002E000000000000000000000000000000000000E
:1002F00000000000000000000000000000000000FE
:1003000000000000000000000000000000000000ED
:1003100000010101010101010101010101010101CE
:1003200001010101010101010101010101020202BA
:10033000020202020202020202020202020202029D
:10034000020203030303030303030303030303037F
:10035000030304040404040404040404040404045F
:10036000050505050505050505050505050606063A
:100370000606060606060606070707070707070715
:1003800007070808080808080808080809090909EB
:1003900009090909090A0A0A0A0A0A0A0A0B0B0BBF
:1003A0000B0B0B0B0B0C0C0C0C0C0C0C0C0D0D0D8F
:1003B0000D0D0D0D0E0E0E0E0E0E0E0F11241FBE86
:1003C000CFE5D2E0DEBFCDBF21E0A0E6B0E001C0C6
:1003D0001D92A438B207E1F715D240C311CE10BE6A
:1003E000C39A80ED97E00197F1F785B7806285BFEA
:1003F000889585B78F7D85BF0895CF93DF936091F2
:100400006200605C60936200611105C080916100D0
:100410008F5F8093610080916100843139F4109284
:100420006100809160008F5F809360008091600028
:100430008A3009F06CC01092600069C0E091270119
:10044000F0912801E80FF91F108201968A35910575
:10045000A9F760C08491A0912701B0912801A80F4D
:10046000B11D7C93EC17FD0721F44B30510534F49A
:1004700020C03196E217F30769F7F7CFA09160002B
:100480000A2E000CBB0B1A978AE0FD01E80FF11D44
:10049000E25EFE4FE4912091270130912801E901AD
:1004A000CE0FD11D18828F5F282F30E0241735071B
:1004B00064F39A30B4F480916000E92F990FFF0B38
:1004C000E80FF11D87FDFA95E25EFE4FE491809101
:1004D0002701909128019C012E0F311DF9016083A5
:1004E00036C080916000E92F990FFF0BE80FF11DD6
:1004F00087FDFA95EC5EFE4FE49180912701909183
:100500002801EC01CE0FD11D6095688320C080E0EA
:1005100090E094CF90916100492F092E000C550B6B
:10052000141615060CF0A1CF20916000022E000CCD
:10053000330BF901E25EFE4FE901C90FD11D97FDB2
:10054000DA95C35EDE4F285D3E4F7FEF83CFDF91AC
:10055000CF910895E0916A00F0916B00E13441E0A1
:10056000F40740F4E13151E0F50730F0E458FF4F73
:10057000249103C020E001C020EA80E090E0E091F7
:100580002701F0912801E80FF91F108201968A35A2
:100590009105A9F72031B8F404C031962031B8F4A0
:1005A00001C080E090E0FC01E25EFE4FE4918091AA
:1005B000270190912801AC014E0F511DFA0122959F
:1005C000207F20830895EEE1F1E080E03FEF9491F9
:1005D000A0912701B0912801A90FB11D3C93205192
:1005E0008F5F8330D1F658C031962031E8F490E027
:1005F000FC01E25EFE4F9491822F880F880F820FDC
:10060000880FA0912701B0912801A90FB11D119762
:100610008C93E4912091270130912801A9014E0F7C
:10062000511DFA01808308959491A0912701B09102
:100630002801A90FB11D11973C939491A091270116
:10064000B0912801A90FB11D3C9320518F5F8730D5
:1006500009F0CACF28C020513196203180F490E0B3
:10066000FC01E25EFE4F8491E0912701F0912801A8
:10067000E80FF11D31972295207F208308959491F2
:10068000A0912701B0912801A90FB11D11973C93AA
:100690008F5F8A3001F70895203108F4A8CFE1E296
:1006A000F1E030EAC1CF2031D0F2E5E2F1E03FEFF6
:1006B000E6CFEF92FF920F931F93CF93DF9380913A
:1006C0006A0090916B008134914020F088DE109296
:1006D000630091C080916A0090916B008E3F9105FC
:1006E00030F4B19904C089DE1092630084C0809117
:1006F0006A0090916B008E3F910548F0C0916300B5
:10070000CE312CF427DFCF5FC093630074C02091FB
:10071000680030916900255F3F4F30936900209356
:1007200068004091660050916700435F5F4F5093AF
:1007300067004093660080916400909165000F9679
:10074000909365008093640055954795559547951E
:10075000142F3595279535952795D22F9595879503
:1007600095958795C82F2EE631E060E571E042E36C
:1007700051E0ACE8B1E081E090E0F901F490EF2DB8
:10078000E10FF0E0E25EFF4F0491E0902701F0906E
:100790002801E80EF91EF1E0EF1AF108F7010083D5
:1007A000FB010491E02FED0FF0E0E25EFF4F0491BA
:1007B000E0902701F0902801E80EF91EF701008370
:1007C000FA010491E02FEC0FF0E0E25EFF4F04919C
:1007D000E0902701F0902801E80EF91EF70101834F
:1007E0002F5F3F4F6F5F7F4F03964F5F5F4F2A171B
:1007F0003B0709F0C2CFDF91CF911F910F91FF907E
:10080000EF900895109269001092680084E690E0DD
:10081000909367008093660088EC90E09093650069
:100820008093640010926300C398BB9AC19A80EDD4
:1008300097E00197F1F7C5D0FBD00895369A369925
:10084000FECF84B195B10895CF93DF9328B338B329
:1008500020613F7EECEBF1E0ACE6B0E040E050E040
:1008600070E0EC015991E50FF11D5491F3954C9115
:10087000450F74914D93711D28BBECEB77FF38BB8E
:10088000F1E000C038BB00C028BB000076FF38BBD9
:100890005991E50F38BB4C9128BBF11D75FF38BB52
:1008A000549138BB00C028BB000074FF38BB00C0A7
:1008B000000038BB00C028BBF39573FF38BB450F61
:1008C00000C038BB00C028BB000072FF38BB549189
:1008D00038BB00C028BB000071FF38BB4D93511DD1
:1008E00038BB00C028BB6A9570FF38BB752F00C0AD
:1008F00038BB11F6DF91CF9108951F920F920FB67A
:100900000F9211242F933F934F935F936F937F9395
:100910008F939F93AF93BF93EF93FF936AE580917B
:1009200024019091250190DF809126018F5F8093B3
:1009300026018091C700811108C0809126018F3067
:1009400021F48CE087B986E886B98091C8008823B5
:1009500039F180912601803118F180912401909124
:100960002501209127013091280130932501209302
:10097000240190932801809327011092C8001092BF
:1009800026018091C700811106C058DF90936B004B
:1009900080936A0016B88091C7008F5F8093C7006C
:1009A000FF91EF91BF91AF919F918F917F916F9147
:1009B0005F914F913F912F910F900FBE0F901F901D
:1009C0001895CF93DF93ECE6F0E089E981938756A1
:1009D0008336E1F789E291E0909325018093240129
:1009E00089EC90E09093280180932701C49880E1DE
:1009F00087BB81E08093C7008CE087B986E886B921
:100A0000C0EDD7E0CE010197F1F718DF90936B00AE
:100A100080936A0016B8F89410BE83E18DBD80E41F
:100A200088BF89BF78942197F1F7DF91CF9108951E
:100A30008BE880BFC1E03DDEC093C8008091C80054
:100A40008823C9F385B7806285BF889585B78F7D78
:100A500085BF8091C8008111F5CFEDCFF894FFCF0D
:00000001FF
